:020000042000DA
:1000000030040120C10100204F0E00203D0A0020D5
:100010004D0E0020130800202513002000000000D2
:10002000000000000000000000000000C90F0020D8
:100030001508002000000000CD0E0020CD1000208B
:10004000DB010020DB010020DB010020DB010020C0
:10005000DB010020DB010020DB010020190800206B
:10006000DB010020DB010020DB010020DB010020A0
:10007000DB010020DB010020DB010020DB01002090
:10008000DB010020DB010020DB010020DB01002080
:10009000DB010020DB010020DB010020DB01002070
:1000A000DB010020DB010020DB010020DB01002060
:1000B000DB010020DB010020DB010020DB01002050
:1000C000DB010020DB010020DB010020DB01002040
:1000D000DB010020DB010020DB010020DB01002030
:1000E000DB010020DB010020DB010020DB01002020
:1000F000DB010020DB010020DB010020DB01002010
:10010000DB010020DB010020DB010020DB010020FF
:10011000DB010020DB010020DB010020DB010020EF
:10012000DB010020DB010020DB010020DB010020DF
:10013000DB010020DB010020DB010020DB010020CF
:10014000DB010020DB010020DB010020DB010020BF
:10015000DB010020DB010020DB010020DB010020AF
:10016000DB010020DB010020DB010020DB0100209F
:10017000DB010020DB010020DB010020DB0100208F
:10018000DB010020DB010020DB010020DB0100207F
:10019000DB010020DB010020DB010020DB0100206F
:1001A000DB010020DB010020DB010020DFF80CD0A8
:1001B00000F0ECFA00480047411C00203004012008
:1001C0000648804706480047FEE7FEE7FEE7FEE7F1
:1001D000FEE7FEE7FEE7FEE7FEE7FEE7D1100020C0
:1001E000AD0100202DE9FE4F81EA030404F0004434
:1001F00021F0004100944FF0000B23F0004350EA3F
:1002000001045ED052EA03045BD0C3F30A54C1F385
:100210000A552C44A4F2F3340194A0FB0254C1F318
:10022000130141F48011C3F3130343F4801301FB62
:10023000024400FB034E840A970A44EA815447EAC9
:100240008357A4FB076802958D0A05FB07854FEAD3
:10025000932C04FB0C542705029D4FEA065847EAED
:100260001637B5EB08056EEB070C870E920E47EAC2
:10027000811742EA8312A7FB0201B6EB0B0164EB84
:1002800000042B0D43EA0C335E1844EB1C50DA4695
:100290005146E7FB0201C5F313044FEA0B3343EA6F
:1002A00014534FEA0432019C43EA0603A4F10C0400
:1002B0000294009CCDE900B400F042F903B0BDE81F
:1002C000F08F00200146F9E72DE9F04D81EA0304A3
:1002D00004F0004B21F0004514464FF0000A23F0D3
:1002E000004150EA050220D054EA01021DD0C5F3B6
:1002F0000A570246C5F31303C1F31300C1F30A56AC
:1003000040F4801543F48013A7EB0608101BD64673
:1003100008F2FD3873EB050002D308F1010801E093
:1003200092185B41B8F1000F03DA00200146BDE8E6
:10033000F08D00204FF48011064684460EE0171B16
:1003400073EB050705D3121B63EB050306434CEA69
:10035000010C49084FEA300092185B4150EA01074E
:10036000EDD152EA030012D082EA040083EA0501CB
:10037000084305D0101BAB4106D20122002306E042
:1003800000224FF0004302E06FF0010253101AEB1D
:1003900006004CEB085110EB0A0041EB0B01BDE8E5
:1003A000F04D00F0BEB80EB5C10F80EAE070084411
:1003B000CA07002140F233438DE80E000A460B467F
:1003C00000F0BEF803B000BD00F0004230F0004085
:1003D0000AD0C10D01F56071C0F3160042EA015167
:1003E000C20840071143704700200146704701F0E2
:1003F000004330B421F0004150EA010206D00A0D5A
:10040000A2F56072C1F31301002A02DC30BC0020A7
:100410007047440F44EAC104C100E01830BC00EB4F
:10042000C25000F047B830B50B46014600202022EC
:10043000012409E021FA02F59D4205D303FA02F5F1
:10044000491B04FA02F52844151EA2F10102F1DC51
:1004500030BD2DE9F05F0546002092469B46884658
:100460000646814640241BE0284641464746224630
:1004700000F0ADF953465A46C01A914110D31146C7
:100480001846224600F094F92D1A67EB01084F46F2
:1004900022460120002100F08BF917EB00094E41A4
:1004A000201EA4F10104DFDC484631462A464346BB
:1004B000BDE8F09F0029A8BF7047401C490008BF55
:1004C00020F00100704710B4B0FA80FC00FA0CF084
:1004D00050EA010404BF10BC704749B1CCF12004BC
:1004E00021FA04F411FA0CF118BF01212143084349
:1004F000A3EB0C01CB1D4FEA00614FEA102042BF75
:10050000002010BC704700EBC35010440029A4BF6A
:1005100010BC7047401C490008BF20F0010010BC0F
:10052000704710B5141E73F1000408DA401C41F145
:10053000000192185B411A4301D120F0010010BD67
:100540002DE9F04D92469B4611B1B1FA81F202E0DD
:10055000B0FA80F22032904600F02AF904460F46A5
:1005600040EA0A0041EA0B0153465A46084313D0B9
:10057000114653EA010019D0C8F14002504600F07C
:1005800026F905460E4650465946424600F010F9F7
:10059000084305D0012004E020463946BDE8F08D2F
:1005A0000020054346EAE0762C4337430A9863056A
:1005B000E40AA0EB08000022FD0A44EA47540A308E
:1005C00002D500200146E9E7010510196941DDE97E
:1005D000084500196941BDE8F04DA2E72DE9FE4F3D
:1005E000804681EA0300C00F0C46009021F00041D4
:1005F00023F00045B8EB0200A94105D24046214650
:1006000090461C460B46024623F00040104347D05C
:10061000270DC7F30A00C3F30A510290401A019054
:1006200040286BDAC3F3130040F4801B0098924615
:1006300020B10023D2EB030A63EB0B0B0198594660
:10064000C0F14002504600F0B3F806460D46504651
:100650005946019A00F0CBF810EB080061410024E4
:1006600087EA115284EAE7731A4340D0009A62B3D2
:10067000019A012A4FEA075215DC001B61EB0201C7
:100680004FF0004202EA0752CDE90042001C41F55A
:10069000801132462B46FFF753FF03B0BDE8F08FC1
:1006A00040462146F9E7001B61EB0201001C41F5C1
:1006B000801300185B412018A2F5001747EB0301D7
:1006C00040EAD570B6196D4111E06D084FEA360663
:1006D00045EAC0754FEA0752001B61EB0201001C9E
:1006E00041F5801149084FEA300000195141324666
:1006F0002B4603B0BDE8F04FFFF713BF009801226F
:1007000040000023D0EB020263EBE0730098214627
:100710004FEAE074B8EB000061EB0401E9E783F015
:1007200000435BE781F0004158E7C1F30A52C1F38F
:10073000130140F2FF3341F480119A4202DA0020A3
:100740000146704740F233439A42A2F2334202DC40
:10075000524200F03CB800F02BB8000030B5041E47
:1007600071F1000404DB4FF00044404264EB0101EE
:10077000141E73F1000405DB1C464FF00043524287
:1007800063EB0403994208BF904230BD064C074D0D
:1007900006E0E06840F0010394E807009847103451
:1007A000AC42F6D3FFF706FDC81E0020E81E00206D
:1007B000202A04DB203A00FA02F100207047914021
:1007C000C2F1200320FA03F3194390407047202A16
:1007D00004DB203A21FA02F00021704721FA02F3EB
:1007E000D040C2F120029140084319467047202AA8
:1007F00006DBCB17203A41FA02F043EAE07306E049
:1008000041FA02F3D040C2F1200291400843194658
:100810007047FEE7704700002DE9FF41022000F01D
:100820007BF8002846D0244801F012FADFF88880CF
:10083000D8F80800FFF7C8FD04460D46D8F80400B4
:10084000FFF7C2FD06460F46D8F80000FFF7BCFDD3
:1008500041EC100B19A053EC102BCDE90067CDE94A
:10086000024500F061FD08F10C0001F037FA08F1D3
:100870000C08D8F80800FFF7A7FD04460D46D8F885
:100880000400FFF7A1FD06460F46D8F80000FFF769
:100890009BFD41EC100B13A053EC102BCDE900672E
:1008A000CDE9024500F040FD04B00220BDE8F04172
:1008B00000F02CB8BDE8FF811400012041636358AB
:1008C000203D20252E3366202041636359203D20A2
:1008D000252E336620204163635A203D20252E3388
:1008E000660A000047797258203D20252E33662085
:1008F0002047797259203D20252E336620204779E4
:10090000725A203D20252E33660A000001490860F6
:1009100070470000143C014001460020024A126862
:100920000A4200D001207047143C014030B51B4AF8
:1009300083790168002B2AD013688B431360111D43
:100940000B680468A3430B60017911440B680468C9
:1009500023430B60114C08342168036899432160DC
:10096000231D19680568A94319604179102905D02C
:1009700011440A68006802430A6030BD21680268B9
:1009800011432160196800680143196030BD007986
:10099000104402688A43026030BD0000003C014000
:1009A0002DE9F041002201274FF0030C07FA02F570
:1009B0000B682B40AB422CD1066853000CFA03F4B1
:1009C000A64306600E79D0F800809E4046EA0806ED
:1009D00006600E79012E01D0022E12D18668A64340
:1009E00086604E79D0F808809E4046EA0806866008
:1009F0004668AE43466045688E799640B6B2354348
:100A00004560C568A543C560CC799C40C3681C435C
:100A1000C460521C102AC9D3BDE8F08110B54B0741
:100A2000DB0E9A40C90800EB8100016A0F249C404C
:100A3000A1430162016A1143016210BDFEE7002972
:100A400004D0018841F4806101807047018821F45D
:100A5000806101807047034600209A8A1B8B1B042B
:100A60001A4322F07F42914300D1012070470029B0
:100A700004D0018841F0010101807047018821F014
:100A8000010101807047000030B587B001210220CC
:100A900000F01EFA0121480500F028FA02208DF826
:100AA000180001218DF81A1000248DF81B408DF8D4
:100AB0001900194D042206212846FFF7AFFF4021F7
:100AC000059105A92846FFF76BFF04220721284658
:100AD000FFF7A4FF8021059105A92846FFF760FFD5
:100AE0002815ADF80E000001ADF810000B4801907C
:100AF0004BF6FF70ADF80A00ADF808400A20ADF8DB
:100B00000C00074C01A9204600F024F801212046E2
:100B1000FFF7ADFF07B030BD00040240801A0600A9
:100B200000540040002904D0018841F48071018004
:100B30007047018821F4807101807047002904D03A
:100B4000018841F4007101807047018821F400712F
:100B5000018070477FB504460D46A08820F03F060F
:100B6000684600F0DFF902982749B0FBF1F189B23D
:100B70000E43A680228822F001022280234B2A689D
:100B80009A4209D85200B0FBF2F080B2042800D299
:100B90000420491C218423E0EB88A3F53F46FF3E57
:100BA0000BD002EBC20303EB0212B0FBF2F080B2F7
:100BB00040F48040020506D007E002EB4202B0FBA1
:100BC000F2F080B2F6E740F0010040F400404FF44C
:100BD000967251434FF47A72B1FBF2F1491C2184B1
:100BE000A083208840F00100208020884FF6F53156
:100BF0000840A9886A89114301432180A88929896D
:100C0000084320817FBD000040420F00A086010004
:100C10002DE9F0470746884615461C46DFF8C89080
:100C200001214846FFF77EFF304E48463146FFF728
:100C300012FF0028F9D000223946484600F0BBF8E0
:100C4000DFF8ACA048465146FFF705FF0028F9D071
:100C50004146484600F0B8F8DFF8948008F10208F1
:100C600041464846FFF7F7FE0028F9D001214846E3
:100C7000FFF758FF31464846FFF7EDFE0028F9D050
:100C80004E4601223946304600F095F8174F7F1C3A
:100C900039463046FFF7DFFE0028F9D00121304603
:100CA000FFF7CDFE114F3F3710E039463046FFF7D2
:100CB000D2FE0028F9D0304600F07AF805F8010B92
:100CC000012C0CD001213046FFF7B9FE641EA4B2FE
:100CD000EBD23046BDE8F0470121FFF72FBF0021DE
:100CE0003046FFF7ACFEF1E700540040010003007E
:100CF000820007002DE9F04106460F46294D0121EB
:100D00002846FFF70FFF284C28462146FFF7A3FE91
:100D10000028F9D000223146284600F04CF8DFF8D0
:100D20008C8028464146FFF796FE0028F9D03946C8
:100D3000284600F049F81D4FBF1C39462846FFF7EA
:100D40008AFE0028F9D001212846FFF7EBFE214654
:100D50002846FFF780FE0028F9D0012231462846B8
:100D600000F029F8104C641C21462846FFF773FE5A
:100D70000028F9D000212846FFF761FE0A4C3F34D5
:100D800021462846FFF767FE0028F9D0284600F0E4
:100D90000FF8044601212846FFF7D0FE2046BDE8A3
:100DA000F0810000005400400100030082000700B1
:100DB000008AC0B27047002A02D041F0010101E070
:100DC00001F0FE0101827047018270472DE9F04178
:100DD00080460D4616461A4C01212046FFF7A2FE1A
:100DE000184F20463946FFF736FE0028F9D000227A
:100DF00041462046FFF7DFFF134F20463946FFF7F5
:100E00002AFE0028F9D029462046FFF7DDFF2546B7
:100E10000D4CA41C21462846FFF71DFE0028F9D0E2
:100E200031462846FFF7D0FF21462846FFF713FE3C
:100E30000028F9D02846BDE8F0410121FFF77EBE29
:100E4000005400400100030082000700FEE77047E5
:100E500030B50F23C27801250178002A1FD0154A2A
:100E6000126802F4E062C2F5E062C2F30722C2F146
:100E70000404D3404278A24084781C4014432201E9
:100E800001F1E02181F80024007800F01F018D407D
:100E90004009800000F1E020C0F8005130BD01F0B1
:100EA0001F0085404809800000F1E020C0F8805113
:100EB00030BD00000CED00E0024908430249086023
:100EC000704700000000FA050CED00E070470000DC
:100ED000054A002903D01168014311607047116869
:100EE000814311607047000030380240054A0029F4
:100EF00003D011680143116070471168814311608C
:100F00007047000040380240054A002903D01168AC
:100F10000143116070471168814311607047000000
:100F20004438024070B5244B196801F00C01234C81
:100F300000291ED0224E04291DD008291DD004608E
:100F4000196801F0F00109091E4A545C0168E1408A
:100F500041601C6804F4E054A40A145D21FA04F40E
:100F600084601B6803F460435B0BD25CD140C160BA
:100F700070BD0460E4E70660E2E70F4A121F1168E3
:100F8000C1F38055116801F03F0135B1B6FBF1F1B5
:100F90001468C4F38814614305E0B4FBF1F11468EC
:100FA000C4F3881461431268C2F30142521C520018
:100FB000B1FBF2F10160C3E7083802400024F400FD
:100FC00040787D01000001207047000010B58A07BD
:100FD000120F0F23934021F003040649214401F628
:100FE00008010C689C430C600B68904003430B6045
:100FF00010BD0000003001401CB50021019100919E
:101000002E4A106840F4803010604FF4A0431068FE
:1010100000F4003000900198401C0190009810B935
:1010200001989842F3D11068800302D50120009006
:1010300000E00091009801283FD12048403001682D
:1010400041F0805101601E49086840F4404008604A
:101050001A48083003680360036843F400430360E0
:10106000036843F4A0530360041F164B2360136806
:1010700043F08073136013689B01FCD50A6842F447
:1010800080320A604A68D203FCD50A6842F4003212
:101090000A604A689203FCD50B4A40F20571116060
:1010A000016821F003010160016841F00201016063
:1010B0000168C1F381010229FAD11CBD0038024048
:1010C00000700040195A4007003C02407047000081
:1010D00010B51248016841F47001016010480168C0
:1010E00041F0010101600E4A0021083211600268DE
:1010F0000C4B1A400260031D0B4A1A60026822F46E
:101100008022026006480C300160FFF775FF03493A
:101110004FF000508039086010BD000088ED00E0FD
:1011200000380240FFFFF6FE103000248A05C94354
:1011300001807047002904D0818941F400518181E8
:101140007047818921F40051818170470246002057
:1011500012880A4200D00120704710B540F66A1389
:10116000C1F3421301F01F040121A140012B07D05C
:10117000022B07D014303AB102680A43026010BD56
:101180000C30F8E71030F6E702688A43026010BDC1
:101190007FB504460D46208A20F44051E888084374
:1011A0002082A08941F20C618843A9882A891143D1
:1011B0006A8902431143A181A08A20F44071A88961
:1011C0000843A0826846FFF7ADFE1E48844202D065
:1011D0001D48844201D1039800E00298A1890904C6
:1011E00008D500EBC00101EB001029684900B0FBF5
:1011F000F1F007E000EBC00101EB00102968890065
:10120000B0FBF1F06422B0FBF2F109010B096FF0C1
:1012100018056B4300EB8300A3891D044FF03203D4
:1012200007D503EBC000B0FBF2F000F00700084365
:1012300006E003EB0010B0FBF2F000F00F000843F3
:1012400020817FBD0010014000140140C1F308015E
:101250008180704730B587B001210846FFF738FE1E
:1012600001211020FFF750FE01218805FFF730FE15
:101270004FF4E060FFF720FE25208DF818000120D4
:101280008DF81B0000248DF819408DF81A4006A82F
:10129000FFF7DEFD02208DF814008DF816408DF862
:1012A00017408DF81500400204901C4D07220A21BA
:1012B0002846FFF7B3FB04A92846FFF771FB691521
:1012C0000491072209212846FFF7A8FB04A9284614
:1012D000FFF766FB4FF4E1300090ADF80C400C20B6
:1012E000ADF80A00ADF80840ADF80640ADF804408E
:1012F0000B4C69462046FFF74BFF40F22555012273
:1013000029462046FFF729FF29462046FFF70EFF12
:1013100001212046FFF70EFF07B030BD000002405C
:1013200000100140FEE700000FB4054B10B503A903
:10133000044A029800F0DAF810BC5DF814FB0000D3
:101340001D1C00201000012002E008C8121F08C167
:10135000002AFAD170477047002001E001C1121F36
:10136000002AFBD1704700002DE9FF5F82B0002109
:10137000DDE90430020DDDF840B0034318D044F637
:101380001050A2F2FF3242431514119801281FD0C9
:10139000A5EB0B00401C5FEA000A4FF000064E4F21
:1013A000DFF83891B046504615D5CAF1000413E075
:1013B000119801244AA3012801D16FEA0B01029878
:1013C000119AC0E90031C0E9024206B0BDE8F09FC1
:1013D000CBF10000DFE704460021404A491842EB08
:1013E0000450CDE9001012E0E00707D032463B463A
:1013F00040464946FEF7F6FE8046894632463B4661
:1014000010461946FEF7EEFE06460F466410002C05
:10141000EAD1DDE90401DDE90023BAF1000F06DAC3
:10142000FEF7E0FE42464B46FEF7DCFE05E0FEF727
:101430004BFF42464B46FEF747FF04460E4600224E
:10144000284BFFF78BF903D84FF0FF30014607E038
:101450000022254B20463146FFF7C0F8FFF765F91B
:10146000102409E0002C0ADB0A220023FEF7F1FF1A
:10147000039B30321A55641E50EA0102F2D1641CFB
:10148000039AC4F111031444119A012A03D00122D2
:1014900008430DD10AE0084304D000204FF0110B9F
:1014A000119072E7A3EB0B056D1E0DE05B4504DDAB
:1014B0004FF0000205F1010504E003DA4FF00002ED
:1014C000A5F10105002AECD002981199C0E902317A
:1014D000C0E9004579E70000000014400000F03F3B
:1014E000300000000000F0430000E03F2DE9FF4F16
:1014F00095B09B468946064600250FE2252877D100
:1015000000242746F84A0121059400E0044316F818
:10151000013F203B01FA03F01042F7D130782A282E
:1015200011D06FF02F033078A0F13002092A16D8BD
:10153000059A44F0020402EB820203EB42021044DB
:10154000761C0590EFE759F8042B0592002A03DA80
:10155000504244F40054059044F00204761C307864
:101560002E2816D116F8010F44F004042A280DD0B5
:101570006FF02F023078A0F13003092B09D807EB68
:10158000870302EB4303C718761CF3E759F8047B83
:10159000761C30786C280FD006DC4C2817D06828D1
:1015A0000DD06A2814D104E0742810D07A280FD105
:1015B0000DE044F400140AE044F4801401E044F423
:1015C00040147278824202D104F58014761C761C95
:1015D000307866280BD013DC582877D009DC002837
:1015E00075D04528F6D04628F4D047281AD19DE179
:1015F00018E0632835D0642879D0652812D195E1A8
:10160000702873D008DC6728F1D069286FD06E2865
:101610000DD06F2806D1B5E073282CD0752875D071
:10162000782874D05A46179990476D1C75E1C4F319
:101630000250022809D003280DD0D9F80010042840
:101640000DD00D6009F1040967E1D9F80010EA171F
:10165000C1E90052F6E7D9F800100D80F2E70D70ED
:10166000F0E719F8041B8DF8001000208DF8010038
:10167000EA46012003E059F804AB4FF0FF30610760
:101680004FF0000102D40DE008F101018846B94293
:101690000FDA8045F8DB1AF808100029F4D108E0C9
:1016A00008F1010188468142FADB1AF80810002986
:1016B000F6D105985B46A0EB080721463846179AF5
:1016C00000F094FA284400EB080507E04DE029E11A
:1016D0000DE01AF8010B5A4617999047B8F1010826
:1016E000F7D25B4621463846179A13E142E00A22B8
:1016F0000092C4F302524FF0000A022A08D059F8AF
:1017000004CB032A4FEAEC710AD00DE029E02AE06D
:1017100009F1070121F00702F2E802C1914609E050
:101720000FFA8CFC4FEAEC71042A03D14FFA8CFCBF
:101730004FEAEC71002907DA0A460021DCF1000CBF
:1017400061EB02012D2202E0220504D52B228DF847
:101750000420012203E0E20701D02022F7E79046AF
:1017600059E00A2102E010220DE010214FF0000A9A
:1017700000910BE010224FF0000A44F00404082707
:10178000009203E008224FF0000A0092C4F30252D4
:10179000022A05D059F804CB0021032A08D009E019
:1017A00009F1070121F00702F2E802C1914605E0C4
:1017B0001FFA8CFC042A01D10CF0FF0C4FF000083A
:1017C000220728D5702806D0009B83F0100353EA27
:1017D0000A0305D00EE040228DF80420012208E023
:1017E0005CEA010206D030228DF804208DF8050055
:1017F00002229046009B83F0080353EA0A030AD1B1
:101800005CEA010201D1620705D530228DF804207F
:101810004FF001087F1E582804D034A003900EA872
:1018200002900DE036A0F9E753466046009AFEF7B5
:1018300010FE84460398825C0298401E029002705B
:101840005CEA0100F0D1029806A9081A00F1200A0A
:10185000600702D524F4803400E00127574502DDFB
:10186000A7EB0A0000E0002000EB0A0100900598B9
:101870004144401A0590E00306D45B462146179A7E
:10188000059800F0B3F90544002706E001A85A4680
:10189000C05D179990476D1C7F1C4745F6DBE00340
:1018A0000CD55B462146179A059800F09FF9054430
:1018B00004E030205A46179990476D1C0099481E45
:1018C00000900029F5DC08E0029802995A46007859
:1018D000491C0291179990476D1CBAF10001AAF1B9
:1018E000010AF1DC65E100000928010030313233E2
:1018F000343536373839616263646566000000004C
:101900003031323334353637383941424344454635
:101910000000000000F058F90544761C30780028DB
:101920007FF4ECAD19B02846BDE8F08F620700D413
:10193000062709F1070222F0070CFCE80223E14622
:1019400003F000485FEA080C02D00FF2702C0DE0A3
:101950005FEA045C02D50FF2682C07E05FEAC47C02
:1019600002D00FF2602C01E0AFF2700C4FF0FF38A4
:1019700023F00043CDF850C065280CD006DC452884
:1019800009D046281DD047283DD13DE0662818D013
:1019900067287ED138E00021112F01DB112000E003
:1019A000781CCDE9000106A90EA8FFF7DDFCDDE9F2
:1019B0000F010E9A03910021009207F1010A049190
:1019C0004DE04FF000400097CDE9011006A90EA8A8
:1019D000FFF7CAFCDDE90F0203920E9B119900226A
:1019E000DDF80CA00093049211B9791C00EB010AF8
:1019F000B7EB0A0004D4C0F1FF3007F1010A0490EC
:101A0000AAEB0700019044E0012F00DA0127002132
:101A1000112F01DD112000E03846CDE9000106A9B3
:101A20000EA8FFF7A1FCDDE90F010E9A039100213A
:101A300004910092BA4621070CD40399514500DA6B
:101A40008A46BAF1010F05DD009AAAF10101515C45
:101A5000302908D0B84202DA10F1040F06DA012169
:101A6000CDE9011015E0AAF10101E9E7002805DC44
:101A7000049901440491AAEB000102E0411C514584
:101A800000DD8A460499401A401C01904FF0004046
:101A90000290200704D40198504501DBCDF8048062
:101AA00000208DF84F0002980DF14F07B0F1004F64
:101AB00025D02B200E9002984FF0020800280CDA57
:101AC000404202902D200E9007E00A210298FEF776
:101AD000AAFC3031029007F8011DB8F10001A8F10D
:101AE0000108F2DC02980028EFD1791E0E980870E8
:101AF000307800F0200040F0450007F8020D12A8F1
:101B0000C01B00F107081498007800B1012000EB19
:101B10000A01019801EBE07105984144401A401E0A
:101B20000590E00306D45B462146179A059800F01D
:101B30005DF805441498007818B15A4617999047F3
:101B40006D1CE00324D55B462146179A059800F0EA
:101B50004DF805441CE00498002807DBDDE903018B
:101B6000884203DD0098405C179901E01799302006
:101B70005A469047049805F10105401C04900198CD
:101B8000401E019004D12E205A46179990476D1C93
:101B9000BAF10001AAF1010ADDDC05E017F8010B3A
:101BA0005A46179990476D1CB8F10001A8F1010839
:101BB000F4DC5B462146179A0598ABE62D00000041
:101BC0002B000000200000002DE9F0410446002514
:101BD0001E461746880404D405E039462020B04745
:101BE0006D1C641EF9D52846BDE8F0812DE9F04151
:101BF000044600251E469046C80301D5302700E064
:101C00002027880404D505E041463846B0476D1CBE
:101C1000641EF9D52846BDE8F081000070B5044681
:101C2000064DE1B22846FFF711FB80212846FFF759
:101C30008DFA0028F9D0204670BD00000010014048
:101C4000FFF708FBFEF720FF00F0FAF8FEE70000C0
:101C500010B504462DED048B82B0684600F072F892
:101C6000BDF90000FEF79FFB9FED188B53EC182B7E
:101C7000FEF7B8FA9FED179B53EC192BFEF7B2FA5B
:101C8000FEF7B5FB2060BDF90200FEF78CFB53ECBC
:101C9000182BFEF7A7FA53EC192BFEF7A3FAFEF761
:101CA000A6FB6060BDF90400FEF77DFB53EC182B2A
:101CB000FEF798FA53EC192BFEF794FAFEF797FB10
:101CC000A06002B0BDEC048B10BD00009A999999F8
:101CD00099992340000000000000103F10B5044611
:101CE0002DED028B82B0684600F049F8BDF9000086
:101CF000FEF759FB9FED118B53EC182BFEF7E4FA1E
:101D0000FEF775FB2060BDF90200FEF74CFB53ECBB
:101D1000182BFEF7D9FAFEF76AFB6060BDF90400E4
:101D2000FEF741FB53EC182BFEF7CEFAFEF75FFBF4
:101D3000A06002B0BDEC028B10BD0000FCA9F1D286
:101D40004D6230401CB50446062269463B2000F037
:101D500033F89DF801009DF8001040EA0120208032
:101D60009DF803009DF8021040EA012060809DF874
:101D700005009DF8041040EA0120A0801CBD1CB5A0
:101D8000044606226946432000F016F89DF801003B
:101D90009DF8001040EA012020809DF803009DF886
:101DA000021040EA012060809DF805009DF80410B3
:101DB00040EA0120A0801CBD13460A460146D020FF
:101DC000FEF726BF0146D020FEF794BF0A46014623
:101DD000D020FEF7FBBF000070B586B001210802DD
:101DE000FFF776F801218803FFF78EF807208DF8BA
:101DF000140001258DF8175000248DF815408DF83A
:101E0000165005A8FFF724F88DF810408DF8134000
:101E10000226039603A90948FEF7C2FD01968DF834
:101E20000A508DF8084008208DF809000121FFF7BD
:101E3000CDF801A8FEF77AFD06B070BD0020024083
:101E400010B5FFF7C9FF1548401E0028FCD17520CA
:101E5000FFF7B8FF682804D0BDE8104010A0FFF7D6
:101E600063BA00216B20FFF7B1FF07211920FFF7AC
:101E7000ADFF06211A20FFF7A9FF01213820FFF747
:101E8000A5FF01211C20FFF7A1FF18211B20FFF750
:101E90009DFFBDE8104007A0FFF746BAFFFF0F0007
:101EA0004D50553630353020696E69742045727258
:101EB0006F720A004D50553630353020696E6974A6
:101EC000204F4B0A00000000E81E00200000012007
:101ED0001400000048130020FC1E00201400012004
:101EE0001C0400005813002000000000010203043D
:0C1EF000010203040607080900000000BE
:04000005200001AD29
:00000001FF
