:020000040800F2
:10000000E8090020C1010008CB120008C50900085A
:10001000C9120008B5080008191A000800000000FD
:10002000000000000000000000000000C9150008EA
:10003000B70800080000000049130008C1170008B5
:10004000DB010008DB010008DB010008DB01000820
:10005000DB010008DB010008DB010008DB01000810
:10006000DB010008DB010008DB010008DB01000800
:10007000DB010008DB010008DB010008DB010008F0
:10008000DB010008DB010008DB010008DB010008E0
:10009000DB010008DB010008DB010008DB010008D0
:1000A000DB010008DB010008DB010008DB010008C0
:1000B000DB010008DB010008DB010008DB010008B0
:1000C000DB010008DB010008DB010008DB010008A0
:1000D000DB010008DB010008DB010008DB01000890
:1000E000DB010008DB010008DB010008DB01000880
:1000F000DB010008DB010008DB010008DB01000870
:10010000DB010008DB010008DB010008DB0100085F
:10011000DB010008DB010008DB010008DB0100084F
:10012000DB010008DB010008DB010008DB0100083F
:10013000DB010008DB010008DB010008DB0100082F
:10014000DB010008DB010008DB010008DB0100081F
:10015000DB010008DB010008DB010008DB0100080F
:10016000DB010008DB010008DB010008DB010008FF
:10017000DB010008DB010008DB010008DB010008EF
:10018000DB010008DB010008DB010008DB010008DF
:10019000DB010008DB010008DB010008DB010008CF
:1001A000DB010008DB010008DB010008DFF80CD0F0
:1001B00000F0ECFA00480047652D0008E80900202F
:1001C0000648804706480047FEE7FEE7FEE7FEE7F1
:1001D000FEE7FEE7FEE7FEE7FEE7FEE7C5170008DD
:1001E000AD01000840EA01039B0703D009E008C9FC
:1001F000121F08C0042AFAD203E011F8013B00F8EC
:10020000013B521EF9D270472DE9FE4F81EA0304EB
:1002100004F0004421F0004100944FF0000B23F063
:10022000004350EA01045ED052EA03045BD0C3F3FA
:100230000A54C1F30A552C44A4F2F3340194A0FBF0
:100240000254C1F3130141F48011C3F3130343F4C7
:10025000801301FB024400FB034E840A970A44EA20
:10026000815447EA8357A4FB076802958D0A05FB72
:1002700007854FEA932C04FB0C542705029D4FEA97
:10028000065847EA1637B5EB08056EEB070C870EE4
:10029000920E47EA811742EA8312A7FB0201B6EBEE
:1002A0000B0164EB00042B0D43EA0C335E1844EBA6
:1002B0001C50DA465146E7FB0201C5F313044FEA2E
:1002C0000B3343EA14534FEA0432019C43EA06031A
:1002D000A4F10C040294009CCDE900B400F0C2F833
:1002E00003B0BDE8F08F00200146F9E700F00042BE
:1002F00030F000400AD0C10D01F56071C0F3160066
:1003000042EA0151C20840071143704700200146EC
:10031000704701F0004330B421F0004150EA01027F
:1003200006D00A0DA2F56072C1F31301002A02DCA7
:1003300030BC00207047440F44EAC104C100E018FB
:1003400030BC00EBC25000F047B830B50B46014658
:1003500000202022012409E021FA02F59D4205D364
:1003600003FA02F5491B04FA02F52844151EA2F10E
:100370000102F1DC30BD2DE9F05F05460020924618
:100380009B4688460646814640241BE02846414657
:100390004746224600F01BFA53465A46C01A91417E
:1003A00010D311461846224600F002FA2D1A67EBC8
:1003B00001084F4622460120002100F0F9F917EB11
:1003C00000094E41201EA4F10104DFDC48463146FD
:1003D0002A464346BDE8F09F0029A8BF7047401C4D
:1003E000490008BF20F00100704710B4B0FA80FC4B
:1003F00000FA0CF050EA010404BF10BC704749B188
:10040000CCF1200421FA04F411FA0CF118BF0121F7
:1004100021430843A3EB0C01CB1D4FEA00614FEAD7
:10042000102042BF002010BC704700EBC3501044A6
:100430000029A4BF10BC7047401C490008BF20F031
:10044000010010BC704710B5141E73F1000408DAE7
:10045000401C41F1000192185B411A4301D120F088
:10046000010010BD2DE9F04D92469B4611B1B1FA45
:1004700081F202E0B0FA80F22032904600F098F962
:1004800004460F4640EA0A0041EA0B0153465A4629
:10049000084313D0114653EA010019D0C8F14002B5
:1004A000504600F094F905460E46504659464246DD
:1004B00000F07EF9084305D0012004E020463946CB
:1004C000BDE8F08D0020054346EAE0762C43374333
:1004D0000A986305E40AA0EB08000022FD0A44EA3A
:1004E00047540A3002D500200146E9E701051019FA
:1004F0006941DDE9084500196941BDE8F04DA2E711
:100500002DE9FE4F804681EA0300C00F0C460090A3
:1005100021F0004123F00045B8EB0200A94105D2CB
:100520004046214690461C460B46024623F00040BA
:10053000104347D0270DC7F30A00C3F30A510290B6
:10054000401A019040286BDAC3F3130040F4801B7B
:100550000098924620B10023D2EB030A63EB0B0B09
:1005600001985946C0F14002504600F021F9064674
:100570000D4650465946019A00F039F910EB080033
:100580006141002487EA115284EAE7731A4340D09C
:10059000009A62B3019A012A4FEA075215DC001B48
:1005A00061EB02014FF0004202EA0752CDE900423E
:1005B000001C41F5801132462B46FFF753FF03B074
:1005C000BDE8F08F40462146F9E7001B61EB0201D0
:1005D000001C41F5801300185B412018A2F500179C
:1005E00047EB030140EAD570B6196D4111E06D0883
:1005F0004FEA360645EAC0754FEA0752001B61EB29
:100600000201001C41F5801149084FEA3000001931
:10061000514132462B4603B0BDE8F04FFFF713BF00
:100620000098012240000023D0EB020263EBE0734C
:10063000009821464FEAE074B8EB000061EB04013A
:10064000E9E783F000435BE781F0004158E72DE9DB
:10065000F04D81EA030404F0004B21F000451446FC
:100660004FF0000A23F0004150EA050220D054EA7E
:1006700001021DD0C5F30A570246C5F31303C1F3A7
:100680001300C1F30A5640F4801543F48013A7EB1E
:100690000608101BD64608F2FD3873EB050002D39E
:1006A00008F1010801E092185B41B8F1000F03DA8C
:1006B00000200146BDE8F08D00204FF48011064671
:1006C00084460EE0171B73EB050705D3121B63EB83
:1006D000050306434CEA010C49084FEA3000921822
:1006E0005B4150EA0107EDD152EA030012D082EAE1
:1006F000040083EA0501084305D0101BAB4106D274
:100700000122002306E000224FF0004302E06FF0D8
:10071000010253101AEB06004CEB085110EB0A00D3
:1007200041EB0B01BDE8F04DFFF78DBEC1F30A525E
:10073000C1F3130140F2FF3341F480119A4202DA0F
:1007400000200146704740F233439A42A2F23342FE
:1007500002DC524200F03BB800F02AB830B5041E6B
:1007600071F1000404DB4FF00044404264EB0101EE
:10077000141E73F1000405DB1C464FF00043524287
:1007800063EB0403994208BF904230BD064C074D0D
:1007900006E0E06840F0010394E807009847103451
:1007A000AC42F6D3FFF706FD802F0008A02F00080B
:1007B000202A04DB203A00FA02F100207047914021
:1007C000C2F1200320FA03F3194390407047202A16
:1007D00004DB203A21FA02F00021704721FA02F3EB
:1007E000D040C2F120029140084319467047202AA8
:1007F00006DBCB17203A41FA02F043EAE07306E049
:1008000041FA02F3D040C2F1200291400843194658
:1008100070472DE9F04D00231A461B1A8A4103DB6D
:1008200000200146BDE8F08DC1F30A52C1F3130167
:1008300041F480154FF0000BD10702D100186D4133
:10084000521E0027044640F2FF11384601EB620AAF
:100850003E468046024600204FF48011FFF7B7FF66
:10086000C2197141BB1846EB0100B4EB030C75EBE8
:10087000000C04D3E41A65EB000517460E46241954
:1008800008F101006D4180463428E3DDF91946EB9B
:100890000600091BA84103D24FF0FF32134601E0C6
:1008A000002213461BEB070046EB0A51BDE8F04D52
:1008B000FFF7C9BDFEE7704710B500EB810393ED6C
:1008C000000A26E0521E914208DA00EB8203D3EDC3
:1008D000000AF4EEC00AF1EE10FAF3DA00EB82033C
:1008E00000EB8104D3ED000AC4ED000A00E0491CCE
:1008F000914208DA00EB8104D4ED000AF4EEC00A5C
:10090000F1EE10FAF3D900EB8104D4ED000AC3ED47
:10091000000A9142D7DB00EB810080ED000A00EE77
:10092000101AB8EEC00A10BD2DE9F04100220127CF
:100930004FF0030C07FA02F50B682B40AB422CD1A9
:10094000066853000CFA03F4A64306600E79D0F84B
:1009500000809E4046EA080606600E79012E01D00E
:10096000022E12D18668A64386604E79D0F80880A0
:100970009E4046EA080686604668AE434660456883
:100980008E799640B6B235434560C568A543C560CB
:10099000CC799C40C3681C43C460521C102AC9D344
:1009A000BDE8F08110B54B07DB0E9A40C90800EB9B
:1009B0008100016A0F249C40A1430162016A114336
:1009C000016210BDFEE7002904D0018841F4806176
:1009D00001807047018821F48061018070470346DF
:1009E00000209A8A1B8B1B041A4322F07F429143FA
:1009F00000D101207047002904D0018841F0010195
:100A000001807047018821F00101018070470000DA
:100A100030B587B00121022000F05AFD01214805C0
:100A200000F064FD02208DF8180001218DF81A10E5
:100A300000248DF81B408DF81900194D0422062161
:100A40002846FFF7AFFF4021059105A92846FFF78B
:100A50006BFF042207212846FFF7A4FF80210591A0
:100A600005A92846FFF760FF2815ADF80E00000124
:100A7000ADF810000B4801904BF6FF70ADF80A007E
:100A8000ADF808400A20ADF80C00074C01A920463B
:100A900000F024F801212046FFF7ADFF07B030BD7C
:100AA00000040240801A060000540040002904D0CF
:100AB000018841F4807101807047018821F48071C0
:100AC00001807047002904D0018841F40071018041
:100AD0007047018821F40071018070477FB504469A
:100AE0000D46A08820F03F06684600F01BFD0298E6
:100AF0002749B0FBF1F189B20E43A680228822F08B
:100B000001022280234B2A689A4209D85200B0FB86
:100B1000F2F080B2042800D20420491C218423E092
:100B2000EB88A3F53F46FF3E0BD002EBC20303EB7D
:100B30000212B0FBF2F080B240F48040020506D011
:100B400007E002EB4202B0FBF2F080B2F6E740F0C1
:100B5000010040F400404FF4967251434FF47A7212
:100B6000B1FBF2F1491C2184A083208840F00100F0
:100B7000208020884FF6F5310840A9886A89114302
:100B800001432180A8892989084320817FBD000075
:100B900040420F00A08601002DE9F0470746884635
:100BA00015461C46DFF8C89001214846FFF77EFF36
:100BB000304E48463146FFF712FF0028F9D0002298
:100BC0003946484600F0BBF8DFF8ACA0484651462D
:100BD000FFF705FF0028F9D04146484600F0B8F875
:100BE000DFF8948008F1020841464846FFF7F7FE17
:100BF0000028F9D001214846FFF758FF3146484602
:100C0000FFF7EDFE0028F9D04E4601223946304666
:100C100000F095F8174F7F1C39463046FFF7DFFE8E
:100C20000028F9D001213046FFF7CDFE114F3F37A4
:100C30000FE039463046FFF7D2FE0028F9D03046A3
:100C400000F07AF805F8010B64B101213046FFF796
:100C5000BAFE641EA4B2ECD23046BDE8F0470121D2
:100C6000FFF730BF00213046FFF7ADFEF1E700008F
:100C70000054004001000300820007002DE9F0410C
:100C800006460F46294D01212846FFF70FFF284C45
:100C900028462146FFF7A3FE0028F9D0002231465E
:100CA000284600F04CF8DFF88C8028464146FFF7D4
:100CB00096FE0028F9D03946284600F049F81D4F25
:100CC000BF1C39462846FFF78AFE0028F9D00121CB
:100CD0002846FFF7EBFE21462846FFF780FE002856
:100CE000F9D001223146284600F029F8104C641C46
:100CF00021462846FFF773FE0028F9D00021284638
:100D0000FFF761FE0A4C3F3421462846FFF767FE95
:100D10000028F9D0284600F00FF8044601212846A3
:100D2000FFF7D0FE2046BDE8F081000000540040EF
:100D30000100030082000700008AC0B27047002A49
:100D400002D041F0010101E001F0FE010182704793
:100D5000018270472DE9F04180460D4616461A4C37
:100D600001212046FFF7A2FE184F20463946FFF723
:100D700036FE0028F9D0002241462046FFF7DFFF6B
:100D8000134F20463946FFF72AFE0028F9D029469E
:100D90002046FFF7DDFF25460D4CA41C21462846C2
:100DA000FFF71DFE0028F9D031462846FFF7D0FF97
:100DB00021462846FFF713FE0028F9D02846BDE853
:100DC000F0410121FFF77EBE005400400100030006
:100DD0008200070030B505462DED108B8BB00C4618
:100DE0002422B04901A8FFF7FDF994ED00BA94ED73
:100DF000019AD4ED02AAD5ED00EA95ED01FAD5ED00
:100E000002FAA94CD4ED011A61EEA1BA94ED021ACE
:100E100021EE818AD4ED030A21EEA0CA94ED040AE2
:100E200061EE80CA21EE01DA61EE20DA21EE00EAFD
:100E300060EEA09A60EE808A20EE00AA2BEE090AEE
:100E400020EE2A0AB5EEC00AF1EE10FA7ED02BEEA3
:100E50000B0A09EE090A0AEEAA0A01F06DFF2BEE51
:100E6000001A69EE001A6AEE800A3EEE4C0AB0EEF5
:100E7000009A60EE09AA38EE280A20EE092A3BEE15
:100E8000CD0A8DED0A0A30EE690A30EE0ABA21EE7B
:100E90008B0A00EEC20A60EEAA0A41EE4B0A21EE6E
:100EA000022A01EEEA2A94ED051ADFED803A00EEFF
:100EB000231A84ED051AD4ED061A40EEA31AC4EDE8
:100EC000061AD4ED072A42EE232AC4ED072AB7EE0C
:100ED000083A40EE03EA3EEE811A00EE83FA7FEE16
:100EE000211A42EE03FA3FEEA22AD4ED020A94ED53
:100EF000033AD4ED042AB1EE600A20EE014A94EDE3
:100F0000010A03EE614A02EEC24A04EE230A84EDAE
:100F1000010A20EE014A03EE024A02EEE14A44EEE3
:100F2000230AC4ED020A20EE214A00EEC24A02EE74
:100F3000814A04EE233A84ED033A20EE022A00EEC1
:100F4000A12A03EE412A42EE232A00E0A6E0C4EDE6
:100F5000042A20EE000A00EEA00A03EE030A02EEC5
:100F6000A20A01F0E9FED4ED010A60EE800AC4EDA8
:100F7000010AD4ED020A60EE800AC4ED020AD4ED43
:100F8000030A60EE800AC4ED030AD4ED040A20EEE1
:100F9000800A84ED040A3BEE8D0A30EE690A30EED9
:100FA0004A0A8DED010A3DEEAC0A20EE090A8DEDEC
:100FB000020ACDED03AA3DEEEC0A20EE090A8DED02
:100FC000040A9DED0A0A30EE290A30EE4A0A8DED38
:100FD000050A38EE880A20EE090A8DED060A3EEE73
:100FE0000C0A20EE090A8DED070A38EEC80A20EE39
:100FF000090A8DED080A8DED09BAD5ED020A9FEDBB
:101000002D1A2B4C60EE810A94ED020A9FED2A1AEC
:1010100000EE810A84ED020A1AEE900AFFF766F9E3
:1010200041EC100B00F024FD9FED24CB51EC100B94
:1010300053EC1C2BFFF7E8F8FFF76BF960601BEE31
:10104000100AFFF753F928EE890A41EC1A0B08EE53
:10105000090A10EE100AFFF749F941EC100BB0EE47
:101060004A1AF0EE6A1A01F01FF853EC1C2B51ECEF
:10107000100BFFF7C9F8FFF74CF92060002001A919
:1010800004F1440201EB800393ED000A02EB8003BC
:1010900083ED000A401CC0B20928F3D30BB0BDECAD
:1010A000108B30BD6C2E0008200000200AD7A33B17
:1010B00070050020A34C65428FC2753C00000060A3
:1010C00066A64CC010B500F0F6F80028FBD010BDA5
:1010D00010B5FFF7F7FF80216B2000F0DCF84FF42C
:1010E000FA7001F000FE01216B2000F0D4F800211D
:1010F000382000F0D0F818211B2000F0CCF808218F
:101100001C2000F0C8F804211A2000F0C4F80021C7
:10111000192000F0C0F80221BDE81040372000F08F
:10112000BAB800007FB51C4C0021608800280ED1A1
:10113000ADF80010ADF80210ADF804106160A160C8
:10114000E160012060800023118051809180BDF911
:101150000000656805446560BDF90200A6680644A4
:10116000A660BDF90400C01AE3680344E360608828
:10117000C82804D0401C6080002004B070BD95FBDE
:10118000F0F5158096FBF0F5558093FBF0F090801C
:1011900061800120F1E70000400000201CB52F48CD
:1011A0004178027841EA02222D490B88D31A8A1D20
:1011B0001380C378847843EA04234C881B1B538034
:1011C00043790479898843EA0423591A9180417A42
:1011D000027A41EA02222249891F0B88D31A01F1BF
:1011E00012021380C37A847A43EA04244B88E31AF8
:1011F0005380437B007B898843EA0020401A90801B
:10120000A2F122042078C043C00711D1D4F82200F3
:101210000090E18CADF804100023123A0199FFF719
:1012200081FF28B1207820F0010040F002002070FA
:101230002078C043800710D4E0690090218CADF87D
:10124000041042F20403064A0199FFF76BFF0028DD
:1012500003D0207820F0020020701CBDD8050020AB
:10126000560000200E21024A3B2000F00CB800007E
:10127000D805002010B50C460146D020FFF7FEFC33
:101280002070012010BD10B50B460146D020FFF79D
:1012900083FC012010BD10B50A460146D020FFF79F
:1012A00059FD012010BD08B569467520FFF7E2FF22
:1012B0009DF8000008BD10B5FFF7F5FF682801D0C4
:1012C000002010BD012010BDFEE7704730B50F2390
:1012D000C27801250178002A1FD0154A126802F44D
:1012E000E062C2F5E062C2F30722C2F10404D34017
:1012F0004278A24084781C401443220101F1E0218D
:1013000081F80024007800F01F018D404009800022
:1013100000F1E020C0F8005130BD01F01F00854011
:101320004809800000F1E020C0F8805130BD000085
:101330000CED00E0024908430249086070470000D4
:101340000000FA050CED00E07047000010B5FFF753
:1013500089FFFFF723FF0C224849494800F0A0F914
:10136000464890ED000A9FED471A20EE010ADFED96
:10137000461A20EE210A80ED000AD0ED010A60EE47
:10138000810A60EEA10AC0ED010A90ED022A22EE68
:10139000011A21EE211A80ED021A3C49DFED3C2AA8
:1013A000B1F9002001EE902AA0F10C02F8EEE11A4A
:1013B00061EEA21AC2ED001AB1F9023002EE103A43
:1013C000B8EEC22A22EE222A82ED012AB1F90410D7
:1013D00003EE101AB8EEC33A63EE222AC2ED022AD7
:1013E000A0F12001C1ED031A81ED042A294A5178A8
:1013F00019B3DFED291A00F10C019FED282A20EE28
:10140000210AD1ED002A02EE820A80ED000A60EE88
:10141000A10AD1ED012A42EE820AC0ED010A21EEB5
:10142000211AD1ED021A01EE821A80ED021A81ED25
:10143000000AC1ED010A81ED021A104990ED000A7F
:10144000183181ED000AD0ED010AC1ED010A90EDDD
:10145000021A81ED021AB5EEC00AF1EE10FA0BD0B5
:10146000F5EEC00AF1EE10FA06D0B5EEC01AF1EEB4
:1014700010FA01D00120107010BD0000900500206E
:101480005C00002040DAFF380AE81C4162000020BE
:1014900045798B3A200000206666663FCDCCCC3D76
:1014A000F0B507460D461646B5420FDA32462946D4
:1014B0003846FFF701FABDEEC00A10EE104A294681
:1014C0003846621EFFF7ECFF651CEDE7F0BD00003B
:1014D000054A002903D01168014311607047116863
:1014E000814311607047000030380240054A0029EE
:1014F00003D0116801431160704711688143116086
:101500007047000040380240054A002903D01168A6
:1015100001431160704711688143116070470000FA
:101520004438024070B5244B196801F00C01234C7B
:1015300000291ED0224E04291DD008291DD0046088
:10154000196801F0F00109091E4A545C0168E14084
:1015500041601C6804F4E054A40A145D21FA04F408
:1015600084601B6803F460435B0BD25CD140C160B4
:1015700070BD0460E4E70660E2E70F4A121F1168DD
:10158000C1F38055116801F03F0135B1B6FBF1F1AF
:101590001468C4F38814614305E0B4FBF1F11468E6
:1015A000C4F3881461431268C2F30142521C520012
:1015B000B1FBF2F10160C3E7083802400024F400F7
:1015C00040787D0100000020704700001CB500211C
:1015D000019100912E4A106840F4803010604FF461
:1015E000A043106800F4003000900198401C019066
:1015F000009810B901989842F3D11068800302D581
:101600000120009000E00091009801283FD120487F
:101610004030016841F0805101601E49086840F483
:10162000404008601A48083003680360036843F4C8
:1016300000430360036843F4A0530360041F164B88
:101640002360136843F08073136013689B01FCD51B
:101650000A6842F480320A604A68D203FCD50A68FC
:1016600042F400320A604A689203FCD50B4A40F209
:1016700005711160016821F003010160016841F00A
:10168000020101600168C1F381010229FAD11CBD88
:101690000038024000700040195A4007003C0240E8
:1016A0002DE9F0470D462DED048B14469FED418A40
:1016B000F0EE488AB0EE489AB0F900103F4E00EEC6
:1016C000101A3D4F3279B8EEC00A07EB820181ED66
:1016D000000AB0F9021007F1500800EE101A08EBEA
:1016E0008201B8EEC00A81ED000AB0F9040007F1EA
:1016F000A00900EE100A09EB8200B8EEC00A80EDE6
:10170000000A521CD0B23071A04202D27079002877
:101710004BD14FF0000A86F805A0621E0021264832
:10172000FFF7BEFE2448621E00215030FFF7B8FECE
:101730002148621E0021A030FFF7B2FE0120611E89
:1017400013E007EB800292ED000A30EE088A08EB06
:10175000800292ED000A70EE288A09EB800292ED79
:10176000000A30EE099A401CC0B28842E9DB3079A9
:10177000A04201D386F804A0A41E00EE104AB8EEE1
:10178000C00AC8EE000AC5ED000A00EE104AB8EE25
:10179000C00AC8EE800AC5ED010A00EE104AB8EE94
:1017A000C00AC9EE000AC5ED020ABDEC048BBDE813
:1017B000F087000000000000100100201000002051
:1017C0007047000010B51248016841F470010160D3
:1017D0001048016841F0010101600E4A0021083201
:1017E000116002680C4B1A400260031D0B4A1A601C
:1017F000026822F48022026006480C300160FFF784
:10180000E5FE03494FF000608039086010BD00001C
:1018100088ED00E000380240FFFFF6FE10300024A3
:101820008A05C94301807047002904D0818941F4A9
:10183000005181817047818921F400518181704775
:101840000246002012880A4200D00120704710B5DD
:1018500040F66A13C1F3421301F01F040121A140B5
:10186000012B07D0022B07D014303AB102680A438B
:10187000026010BD0C30F8E71030F6E702688A43CA
:10188000026010BD7FB504460D46208A20F4405109
:10189000E88808432082A08941F20C618843A98826
:1018A0002A8911436A8902431143A181A08A20F445
:1018B0004071A8890843A0826846FFF733FE1E489E
:1018C000844202D01D48844201D1039800E002986E
:1018D000A189090408D500EBC00101EB00102968BB
:1018E0004900B0FBF1F007E000EBC00101EB001094
:1018F00029688900B0FBF1F06422B0FBF2F1090124
:101900000B096FF018056B4300EB8300A3891D04DE
:101910004FF0320307D503EBC000B0FBF2F000F04C
:101920000700084306E003EB0010B0FBF2F000F004
:101930000F00084320817FBD0010014000140140CA
:10194000C1F308018180704730B587B00121084696
:10195000FFF7BEFD01211020FFF7D6FD012188050C
:10196000FFF7B6FD4FF4E060FFF7E4FC25208DF8AB
:10197000180001208DF81B0000248DF819408DF807
:101980001A4006A8FFF7A2FC02208DF814008DF87B
:1019900016408DF817408DF81500400204901C4D3C
:1019A00007220A212846FEF7FDFF04A92846FEF774
:1019B000BBFF69150491072209212846FEF7F2FFB3
:1019C00004A92846FEF7B0FF4FF4E1300090ADF8CF
:1019D0000C400C20ADF80A00ADF80840ADF8064008
:1019E000ADF804400B4C69462046FFF74BFF40F230
:1019F0002555012229462046FFF729FF2946204682
:101A0000FFF70EFF01212046FFF70EFF07B030BDA4
:101A10000000024000100140FEE700000FB4054B3B
:101A200010B503A9044A029800F0BEFD10BC5DF891
:101A300014FB0000152D00086800002003B4019875
:101A40004100009850EAC12018BF04204A0D18BF79
:101A500040F0010040F2FF72B2EB515F08BF40F06E
:101A60000200012808BF052002B0704700000000F6
:101A700070B5C1482DED020B2DED0E8B82B0119D7E
:101A800025F000449FEDBEDB9FEDBFEB84423EDBC3
:101A9000A4F140511098A1F17F6108430FD0BC48D8
:101AA000844202DC28D1109830B39DED100B02B0B7
:101AB000BDEC0E8B02B0BDE8704000F069BC9DED3E
:101AC000100B53EC1D2B51EC100BFEF79DFB9DED05
:101AD000100B41EC180B53EC1E2B51EC100BFEF7C6
:101AE00093FB53EC182BFEF70BFD41EC100B02B0EF
:101AF000BDEC0E8B02B070BD012000F08DFC02B079
:101B0000BDEC0E8B02B0BDE8704000F055BCA148A2
:101B10009FEDA18B844256DA9DED100BB4F1795FF5
:101B20000ADA51EC100BFFF789FF042808BF00F018
:101B300053FC9DED100BDAE753EC102B51EC100B1E
:101B4000FEF762FB41EC190B95480621B0EE490AFD
:101B5000F0EE690A784400F09FFB53EC192B51EC2E
:101B6000100BFEF751FB41EC1A0B8E48B0EE490A00
:101B7000F0EE690A0421784400F08EFB53EC192B37
:101B800051EC100BFEF740FB53EC182BFEF7B8FCA2
:101B900041EC100B51EC1A0B53EC102BFEF757FDD8
:101BA000CDE900019DED000B53EC102B9DED100BCA
:101BB00051EC100BFEF728FB9DED101B53EC112B85
:101BC000FEF79EFCD2E09DED100B51EC100B01F0E6
:101BD00095F853EC182BFEF737FD9FED730BCDE90D
:101BE000000153EC102B9DED000B51EC100BFEF798
:101BF0000BFB41EC190B6E480621B0EE490AF0EEE2
:101C0000690A784400F048FB53EC192B51EC100B97
:101C1000FEF7FAFA41EC1B0B6648B0EE490AF0EE0B
:101C2000690A0421784400F037FB53EC192B51EC7E
:101C3000100BFEF7E9FA53EC182BFEF761FC41ECB0
:101C40001C0B51EC190B01F0D9F841EC180B5A4858
:101C50009FED5BABA04222DC53EC1C2B51EC1B0B29
:101C6000FEF7F5FCCDE900019DED000B51EC180BE2
:101C700053EC102BFEF7C8FA53EC182BFEF740FC80
:101C800053EC1A2BFEF7C0FA53EC1D2BFEF7D9FCD0
:101C900053EC1E2BFEF7D8FC41EC100B5FE08DEDF2
:101CA000008B002000909DED000B51EC180B53ECC5
:101CB000102BFEF725FC9DED000B41EC1E0B53ECA9
:101CC000102B51EC100BFEF79FFA53EC192BFEF77B
:101CD000BBFC53EC1E2BFEF7BAFC41EC190B53EC8A
:101CE0001C2B51EC1B0BFEF7B2FC41EC1B0B53EC15
:101CF0001A2B51EC190BFEF787FA53EC1D2BFEF74C
:101D0000A3FC41EC190B53EC1A2B51EC180BFEF70A
:101D10007BFA53EC1B2BFEF777FA53EC192BFEF7EB
:101D200090FC9DED000B41EC180B53EC1A2B51EC81
:101D3000100BFEF769FA9FED249B53EC192BFEF76D
:101D400083FC41EC100B51EC180B53EC102BFEF7FD
:101D500078FC53EC192BFEF777FC41EC100B002DAF
:101D60003FF7C5AE51EC100B81F0004141EC100B78
:101D7000BDE60000000000000000F03F0000000091
:101D8000075C143326A6913C182D4454FB21F93FDF
:101D90000000F07F0000E03F000000000000F03F86
:101DA0003813000046130000000000000000E03F70
:101DB0008A120000981200003333EF3F0000000049
:101DC0000000000000000040182D4454FB21E93FB2
:101DD00070B59B482DED020B2DED068B079D25F070
:101DE0000044A04218DC9748844202DC0AD10698DD
:101DF00040B19DED060BBDEC068B02B0BDE8704016
:101E000000F0C6BA002DCCBF9FED8F0B9FED900B5D
:101E1000BDEC068B02B070BD8F48A04215DD8F4827
:101E2000A042D8BF4FF0FF3458DD9DED060B51ECBA
:101E3000100BFFF703FE042808BF00F0CDFA9DED5C
:101E4000060BBDEC068B02B070BD9DED060B51EC90
:101E5000100B00F053FFCDE9060181489FED828B06
:101E6000A0423CDD8248A0421FDD00249FED82ABF2
:101E70009DED060B53EC1A2B51EC100BFEF740FBBB
:101E80009DED060B41EC190B53EC1A2B51EC100B8A
:101E9000FEF7BAF953EC182BFEF7D3FB53EC192BD2
:101EA000FEF7D5FBCDE9060149E09DED060B0124C7
:101EB00053EC182B51EC100BFEF722FB9DED060B9B
:101EC00041EC190B53EC182B51EC100BFEF7B9FB3E
:101ED00053EC192BFEF7BBFBCDE906012FE0684858
:101EE000A0421FDD02249FED689B9DED060B53EC85
:101EF000192B51EC100BFEF787F953EC182BFEF75A
:101F0000FFFA9DED060B41EC180B53EC192B51EC2D
:101F1000100BFEF796FB53EC182BFEF798FBCDE960
:101F200006010CE09DED060B032453EC102B9FEDF6
:101F3000580B51EC100BFEF78AFBCDE906019DED25
:101F4000060B53EC102B51EC100BFEF75DF941EC36
:101F5000180B53EC182BFEF757F941EC190B4E48B0
:101F60000621B0EE490AF0EE690A784400F094F9CF
:101F700053EC182B51EC100BFEF746F941EC180B03
:101F80004648B0EE490AF0EE690A0521784400F0AF
:101F900083F953EC192B51EC100BFEF735F941EC9A
:101FA000100B51EC180B53EC102B002C0EDAFEF733
:101FB000A7FA9DED061B53EC112BFEF725F99DEDBD
:101FC000061B53EC112BFEF73FFB35E0FEF798FAAA
:101FD0009DED061B53EC112BFEF716F941EC100B8F
:101FE0002F48784400EBC40090ED001B51EC100B1F
:101FF00053EC112BFEF725FB9DED061B53EC112B2B
:10200000FEF71FFB41EC100B2648784400EBC400A0
:1020100090ED001B51EC100B53EC112BFEF714FB51
:1020200041EC100B002DA2BFBDEC068B02B070BDC1
:1020300051EC100B81F0004141EC100B01E7000066
:10204000000010440000F07F182D4454FB21F93F9C
:10205000182D4454FB21F9BF0000DC3F0000203E56
:102060000000F33F00000000000000000000F03F0F
:102070000000E63F000000000000000000000040FB
:102080000080034000000000000000000000F83F56
:10209000000000000000F0BFDA0F0000900F000009
:1020A0001A0F0000D20E000070B56B4E2DED040B20
:1020B0002DED028B82B0DDF81CC0DDE905235C420A
:1020C0002CF000411C4341EAD474049D22F00040EE
:1020D000B44205D86C422C4340EAD474B4420BD9C4
:1020E0009DED061B9DED040B02B0BDEC028B04B010
:1020F000BDE8704000F056B9ACF14054A4F17F64E3
:102100001C430BD0022404EAAC7444EAD2740543A5
:102110009FED538B9FED542B07D015E09DED040BE5
:1021200051EC100B00F0D7FD42E0002C11BF012C48
:102130009DED040B02B0BDEC028B04BF04B070BD7A
:10214000022C38D0032C3BD00B439FED491B9FED55
:102150004A0B0AD0B14218D1B04209D121F08041D6
:1021600020F08040079105900FE0002A15DA10E07A
:10217000434B7B44002C08BF93ED000B0DD0012C8A
:1021800010D0022C17D0032C1AD0B0421DD1002A37
:1021900003DAB0EE410AF0EE610A02B0BDEC028B48
:1021A00004B070BD93ED000B51EC100B81F00041B9
:1021B00041EC100BF1E7B0EE480AF0EE680AECE7EC
:1021C000B0EE420AF0EE620AE7E7401A00153C283A
:1021D000C8BF8DED000B19DCBCF1000FBEBF10F1C4
:1021E0003C0F9FED290B8DED000B0FDB9DED060BDA
:1021F00053EC102B9DED040B51EC100BFEF727FA5E
:1022000000F07CFD00F067FDCDE90001002C08BF67
:102210009DED000BC1D0012C10D0022C9FED1C0BAA
:1022200053EC102B9DED000B51EC100B0DD0FEF775
:1022300008FA53EC182BFEF704FAB9E7019880F07E
:10224000004001909DED000BA7E7FEF7FAF953EC73
:10225000182BFEF7F9F9ABE70000F07F0000000053
:10226000182D4454FB210940182D4454FB2109C06A
:10227000182D4454FB21F9BF182D4454FB21F93F7C
:10228000020E00000000000000000000000000003E
:10229000075C143326A6A13C70B504462DED028BD5
:1022A0004D1E00EBC500B0EE408AF0EE608A90ED66
:1022B000000B35F0060017D053EC182B51EC100B27
:1022C000FDF7A2FF41EC100B6D1E04EBC50090ED75
:1022D000001B51EC100B53EC112BFEF711F941ECE4
:1022E000100B35F00600E7D1022D36D0042D1CD09E
:1022F000062D1CBFBDEC028B70BD53EC182B51ECAE
:10230000100BFDF781FF94ED0A1B53EC112BFEF728
:10231000F7F853EC182BFDF777FF94ED081B53ECFF
:10232000112BFEF7EDF841EC100B53EC182B51EC90
:10233000100BFDF769FF94ED061B53EC112BFEF714
:10234000DFF853EC182BFDF75FFF94ED040B53EC13
:10235000102BFEF7D5F841EC100B53EC182B51EC79
:10236000100BFDF751FF94ED021B53EC112BFEF700
:10237000C7F853EC182BFDF747FF94ED001B53EC07
:10238000112BFEF7BDF8BDEC028B41EC100B70BDBC
:1023900010B553EC102B51EC100BFEF7B1F841ECDB
:1023A000100B10BD10B553EC112B51EC100BFEF7B8
:1023B000A7F841EC100B10BD9FED050B10B553ECC9
:1023C000102B51EC100BFEF742F941EC100B10BD35
:1023D00000000000000000009FED050B10B553EC5D
:1023E000102B51EC100BFDF70FFF41EC100B10BD43
:1023F000000000000000001002E008C8121F08C121
:10240000002AFAD170477047002001E001C1121F75
:10241000002AFBD1704700000149086070470000A6
:102420006C0000202DE9FF5F82B00021DDE904305F
:10243000020DDDF840B0034318D044F61050A2F26C
:10244000FF3242431514119801281FD0A5EB0B0051
:10245000401C5FEA000A4FF000064E4FDFF838914B
:10246000B046504615D5CAF1000413E01198012476
:102470004AA3012801D16FEA0B010298119AC0E921
:102480000031C0E9024206B0BDE8F09FCBF1000088
:10249000DFE704460021404A491842EB0450CDE9E9
:1024A000001012E0E00707D032463B46404649465E
:1024B000FDF7AAFE8046894632463B46104619463D
:1024C000FDF7A2FE06460F466410002CEAD1DDE9B6
:1024D0000401DDE90023BAF1000F06DAFDF794FEEE
:1024E00042464B46FDF790FE05E0FEF7B0F8424647
:1024F0004B46FEF7ACF804460E460022284BFEF78A
:102500002DF903D84FF0FF30014607E00022254B9C
:1025100020463146FDF7F4FFFEF708F9102409E0E4
:10252000002C0ADB0A220023FDF725FF039B303233
:102530001A55641E50EA0102F2D1641C039AC4F1D8
:1025400011031444119A012A03D0012208430DD12A
:102550000AE0084304D000204FF0110B119072E7FD
:10256000A3EB0B056D1E0DE05B4504DD4FF0000293
:1025700005F1010504E003DA4FF00002A5F10105C1
:10258000002AECD002981199C0E90231C0E9004557
:1025900079E70000000014400000F03F3000000028
:1025A0000000F0430000E03F2DE9FF4F95B09B464F
:1025B0008946064600250FE2252877D100242746C4
:1025C000F84A0121059400E0044316F8013F203B3E
:1025D00001FA03F01042F7D130782A2811D06FF0B9
:1025E0002F033078A0F13002092A16D8059A44F05A
:1025F000020402EB820203EB42021044761C0590B7
:10260000EFE759F8042B0592002A03DA504244F40C
:102610000054059044F00204761C30782E2816D120
:1026200016F8010F44F004042A280DD06FF02F0291
:102630003078A0F13003092B09D807EB870302EBB0
:102640004303C718761CF3E759F8047B761C3078EF
:102650006C280FD006DC4C2817D068280DD06A28CB
:1026600014D104E0742810D07A280FD10DE044F47E
:1026700000140AE044F4801401E044F44014727839
:10268000824202D104F58014761C761C30786628CC
:102690000BD013DC582877D009DC002875D04528EA
:1026A000F6D04628F4D047281AD19DE118E06328D7
:1026B00035D0642879D0652812D195E1702873D07F
:1026C00008DC6728F1D069286FD06E280DD06F28FC
:1026D00006D1B5E073282CD0752875D0782874D031
:1026E0005A46179990476D1C75E1C4F302500228B1
:1026F00009D003280DD0D9F8001004280DD00D60A2
:1027000009F1040967E1D9F80010EA17C1E900529C
:10271000F6E7D9F800100D80F2E70D70F0E719F830
:10272000041B8DF8001000208DF80100EA460120FE
:1027300003E059F804AB4FF0FF3061074FF00001A0
:1027400002D40DE008F101018846B9420FDA804554
:10275000F8DB1AF808100029F4D108E008F10101AB
:1027600088468142FADB1AF808100029F6D105984C
:102770005B46A0EB080721463846179A00F094FA0A
:10278000284400EB080507E04DE029E10DE01AF8C8
:10279000010B5A4617999047B8F10108F7D25B46EA
:1027A00021463846179A13E142E00A220092C4F308
:1027B00002524FF0000A022A08D059F804CB032A2B
:1027C0004FEAEC710AD00DE029E02AE009F1070197
:1027D00021F00702F2E802C1914609E00FFA8CFCF1
:1027E0004FEAEC71042A03D14FFA8CFC4FEAEC71EA
:1027F000002907DA0A460021DCF1000C61EB020136
:102800002D2202E0220504D52B228DF8042001227E
:1028100003E0E20701D02022F7E7904659E00A21C1
:1028200002E010220DE010214FF0000A00910BE0B1
:1028300010224FF0000A44F004040827009203E03D
:1028400008224FF0000A0092C4F30252022A05D077
:1028500059F804CB0021032A08D009E009F1070147
:1028600021F00702F2E802C1914605E01FFA8CFC54
:10287000042A01D10CF0FF0C4FF00008220728D5E4
:10288000702806D0009B83F0100353EA0A0305D09A
:102890000EE040228DF80420012208E05CEA0102EB
:1028A00006D030228DF804208DF8050002229046D3
:1028B000009B83F0080353EA0A030AD15CEA010291
:1028C00001D1620705D530228DF804204FF00108B0
:1028D0007F1E582804D034A003900EA802900DE06B
:1028E00036A0F9E753466046009AFDF744FD84465A
:1028F0000398825C0298401E029002705CEA01001C
:10290000F0D1029806A9081A00F1200A600702D542
:1029100024F4803400E00127574502DDA7EB0A00CC
:1029200000E0002000EB0A01009005984144401AA5
:102930000590E00306D45B462146179A059800F0FF
:10294000B3F90544002706E001A85A46C05D17996F
:1029500090476D1C7F1C4745F6DBE0030CD55B46BA
:102960002146179A059800F09FF9054404E03020AD
:102970005A46179990476D1C0099481E00900029EF
:10298000F5DC08E0029802995A460078491C029149
:10299000179990476D1CBAF10001AAF1010AF1DC08
:1029A00065E1000009280100303132333435363713
:1029B000383961626364656600000000303132338B
:1029C000343536373839414243444546000000002B
:1029D00000F058F90544761C307800287FF4ECADFF
:1029E00019B02846BDE8F08F620700D4062709F128
:1029F000070222F0070CFCE80223E14603F000483E
:102A00005FEA080C02D00FF2702C0DE05FEA045C64
:102A100002D50FF2682C07E05FEAC47C02D00FF207
:102A2000602C01E0AFF2700C4FF0FF3823F0004350
:102A3000CDF850C065280CD006DC452809D04628C2
:102A40001DD047283DD13DE0662818D067287ED1AB
:102A500038E00021112F01DB112000E0781CCDE9C6
:102A6000000106A90EA8FFF7DDFCDDE90F010E9AB3
:102A700003910021009207F1010A04914DE04FF00B
:102A800000400097CDE9011006A90EA8FFF7CAFC87
:102A9000DDE90F0203920E9B11990022DDF80CA0D4
:102AA0000093049211B9791C00EB010AB7EB0A00FC
:102AB00004D4C0F1FF3007F1010A0490AAEB07002B
:102AC000019044E0012F00DA01270021112F01DDE0
:102AD000112000E03846CDE9000106A90EA8FFF755
:102AE000A1FCDDE90F010E9A0391002104910092EF
:102AF000BA4621070CD40399514500DA8A46BAF147
:102B0000010F05DD009AAAF10101515C302908D0BE
:102B1000B84202DA10F1040F06DA0121CDE9011002
:102B200015E0AAF10101E9E7002805DC0499014458
:102B30000491AAEB000102E0411C514500DD8A46E8
:102B40000499401A401C01904FF000400290200769
:102B500004D40198504501DBCDF8048000208DF8A5
:102B60004F0002980DF14F07B0F1004F25D02B20F8
:102B70000E9002984FF0020800280CDA40420290B2
:102B80002D200E9007E00A210298FDF7DEFB303180
:102B9000029007F8011DB8F10001A8F10108F2DC6C
:102BA00002980028EFD1791E0E980870307800F056
:102BB000200040F0450007F8020D12A8C01B00F1EC
:102BC00007081498007800B1012000EB0A01019871
:102BD00001EBE07105984144401A401E0590E00366
:102BE00006D45B462146179A059800F05DF8054427
:102BF0001498007818B15A46179990476D1CE00355
:102C000024D55B462146179A059800F04DF80544F7
:102C10001CE00498002807DBDDE90301884203DD9E
:102C20000098405C179901E0179930205A46904768
:102C3000049805F10105401C04900198401E019084
:102C400004D12E205A46179990476D1CBAF1000105
:102C5000AAF1010ADDDC05E017F8010B5A461799C5
:102C600090476D1CB8F10001A8F10108F4DC5B4647
:102C70002146179A0598ABE62D0000002B000000B6
:102C8000200000002DE9F041044600251E461746AD
:102C9000880404D405E039462020B0476D1C641E2A
:102CA000F9D52846BDE8F0812DE9F041044600251C
:102CB0001E469046C80301D5302700E0202788042F
:102CC00004D505E041463846B0476D1C641EF9D571
:102CD0002846BDE8F08110B541EC100BFFF778F8FD
:102CE00051EC100B10BD42F2107203E00021491CA0
:102CF0009142FCD3401E80B2F8D2704782B0CDE939
:102D0000000121F0004001909DED000B02B051EC5C
:102D1000100B704770B50446064DE1B22846FEF729
:102D20000FFE80212846FEF78BFD0028F9D02046B3
:102D300070BD000000100140F6EE000A60EE200AAF
:102D400010EE100A0649A1EB600000EE100A20EE1A
:102D5000801AF7EE080A41EE400A20EE800A70471A
:102D6000865A375F1FB5FEF7EFFDFDF751FEFEF700
:102D7000AFF9DFF854804FF6FF79FEF7E7FA124A11
:102D800012491348FEF726F8D8F80000FDF7AEFA0E
:102D900004460D46D8F80400FDF7A8FA06460F468B
:102DA000D8F80800FDF7A2FA41EC100B09A053EC8B
:102DB000102BCDE90067CDE90245FEF72FFE00207C
:102DC000401C4845FCD3D8E7700500209005002042
:102DD000840500204D562E796177203D2025662000
:102DE000204D562E726F6C203D20256620204D56BA
:102DF0002E706974203D2025660A000000B52DED77
:102E0000048B83B041EC190BFDF703FD41EC180B6B
:102E100018EE100A18EE901A8DED008B002818BFDE
:102E20000120084320F00040C0F17F6000F1E04045
:102E3000C00F14D019EE101A19EE900A8DED009BF8
:102E4000002918BF0121084320F00040C0F17F6035
:102E500000F1E040C00F04BF0120FFF7DDFA51ECA4
:102E6000180B03B0BDEC048B00BD00000000803FD8
:102E70000000000000000000000000000000803F93
:102E80000000000000000000000000000000803F83
:102E9000555555555555C53F7D6FEB0312D6D4BFDB
:102EA0005544880E55C1C93F3B8F68B52882A4BFE1
:102EB00088B20175E0EF493F09F7FD0DE13D023FA2
:102EC0004B2D8A1C273A03C0C88A599CE52A00402A
:102ED00059018D1B6C06E6BF82922EB1C5B8B33F77
:102EE0004FBB610567ACDD3F182D4454FB21E93F22
:102EF0009BF681D20B73EF3F182D4454FB21F93F11
:102F0000E2652F227F2B7A3C075C143326A6813C96
:102F1000BDCBF07A8807703C075C143326A6913C41
:102F2000C4EB98999999C9BF711623FEC671BCBFAD
:102F30006D9A74AFF2B0B3BF9AFDDE522DDEADBF15
:102F40002F6C6A2C44B4A2BF0D5555555555D53F2D
:102F5000FF8300922449C23F6E204CC5CD45B73F48
:102F6000513DD0A0660DB13FEB0D76244B7BA93FC0
:102F700011DA22E33AAD903F0000000000000000AB
:102F8000A02F00080000002070000000F8230008B7
:102F900010300008700000207809000008240008A4
:102FA00000000000010203040102030406070809EF
:102FB000000100010001000100010001000100000A
:102FC000000100000000803F000000000000000041
:102FD00000000000000000000000000000000000F1
:102FE00000000000000000000000000000000000E1
:102FF00000000000000000000000000000000000D1
:1030000000000000000000000000000000000000C0
:04000005080001AD41
:00000001FF
